:020000040800F2
:1000000000500020D10C0008210D0008210D00082F
:10001000210D0008210D0008210D0008000000003E
:10002000000000000000000000000000210D00089A
:10003000210D000800000000210D0008390C000807
:10004000210D0008210D0008210D0008210D0008D8
:10005000210D0008210D0008210D0008210D0008C8
:10006000210D0008210D0008210D0008210D0008B8
:10007000210D0008210D0008210D0008210D0008A8
:10008000210D0008210D0008210D0008210D000898
:10009000210D0008210D0008210D0008210D000888
:1000A000210D0008210D0008210D0008210D000878
:1000B000210D0008210D0008210D0008210D000868
:1000C000210D0008210D0008210D0008210D000858
:1000D000210D0008210D0008210D0008210D000848
:1000E000210D0008210D000800000000210D00086E
:1000F000210D0008210D0008210D0008210D000828
:10010000210D0008210D0008210D0008210D000817
:10011000210D0008210D0008210D0008210D000807
:10012000210D0008210D0008210D0008210D0008F7
:1001300010B5054C237833B9044B13B10448AFF321
:1001400000800123237010BD00000020000000008B
:100150006C0D000808B5034B1BB103490348AFF30E
:10016000008008BD00000000040000206C0D0008A5
:1001700080F0004002E000BF81F0004142001FBF5C
:100180005FEA410392EA030F7FEA226C7FEA236C65
:100190006AD04FEA1262D2EB1363C1BFD21841405A
:1001A00048404140B8BF5B42192B88BF704710F0F0
:1001B000004F40F4000020F07F4018BF404211F093
:1001C000004F41F4000121F07F4118BF494292EAFB
:1001D000030F3FD0A2F1010241FA03FC10EB0C0027
:1001E000C3F1200301FA03F100F0004302D54942B4
:1001F00060EB4000B0F5000F13D3B0F1807F06D361
:1002000040084FEA310102F10102FE2A51D2B1F158
:10021000004F40EBC25008BF20F0010040EA03004D
:100220007047490040EB0000013A28BFB0F5000FCD
:10023000EDD2B0FA80FCACF1080CB2EB0C0200FA83
:100240000CF0AABF00EBC25052421843BCBFD040D2
:100250001843704792F0000F81F4000106BF80F44C
:1002600000000132013BB5E74FEA41037FEA226C0F
:1002700018BF7FEA236C21D092EA030F04D092F0DA
:10028000000F08BF0846704790EA010F1CBF00200E
:10029000704712F07F4F04D1400028BF40F000406B
:1002A000704712F100723CBF00F50000704700F08B
:1002B000004343F0FE4040F4000070477FEA2262B2
:1002C00016BF08467FEA23630146420206BF5FEA83
:1002D000412390EA010F40F4800070474FF0000383
:1002E00004E000BF10F0004348BF40425FEA000C4A
:1002F00008BF704743F0964301464FF000001CE0F2
:1003000050EA010208BF70474FF000030AE000BF47
:1003100050EA010208BF704711F0004302D5404285
:1003200061EB41015FEA010C02BF844601460020F7
:1003300043F0B64308BFA3F18053A3F50003BCFA12
:100340008CF2083AA3EBC25310DB01FA02FC6344BF
:1003500000FA02FCC2F12002BCF1004F20FA02F2C6
:1003600043EB020008BF20F00100704702F12002B9
:1003700001FA02FCC2F1200250EA4C0021FA02F21A
:1003800043EB020008BF20EADC7070474FF0FF0C1F
:100390001CEAD0521EBF1CEAD15392EA0C0F93EA1A
:1003A0000C0F6FD01A4480EA010C400218BF5FEABC
:1003B00041211ED04FF0006343EA501043EA51112F
:1003C000A0FB01310CF00040B1F5000F3EBF490029
:1003D00041EAD3715B0040EA010062F17F02FD2A2D
:1003E0001DD8B3F1004F40EBC25008BF20F0010010
:1003F000704790F0000F0CF0004C08BF49024CEA27
:10040000502040EA51207F3AC2BFD2F1FF0340EAB8
:10041000C250704740F400004FF00003013A5DDC29
:1004200012F1190FDCBF00F000407047C2F100026A
:10043000410021FA02F1C2F1200200FA02FC5FEA57
:10044000310040F1000053EA4C0308BF20EADC70A1
:10045000704792F0000F00F0004C02BF400010F413
:10046000000F013AF9D040EA0C0093F0000F01F0C0
:10047000004C02BF490011F4000F013BF9D041EAE2
:100480000C018FE70CEAD15392EA0C0F18BF93EAE4
:100490000C0F0AD030F0004C18BF31F0004CD8D10E
:1004A00080EA010000F00040704790F0000F17BF95
:1004B00090F0004F084691F0000F91F0004F14D0DB
:1004C00092EA0C0F01D142020FD193EA0C0F03D133
:1004D0004B0218BF084608D180EA010000F0004036
:1004E00040F0FE4040F40000704740F0FE4040F411
:1004F000400070474FF0FF0C1CEAD0521EBF1CEAB0
:10050000D15392EA0C0F93EA0C0F69D0A2EB0302CD
:1005100080EA010C49024FEA402037D04FF0805367
:1005200043EA111143EA10130CF000408B4238BF2C
:100530005B0042F17D024FF4000C8B4224BF5B1A3A
:1005400040EA0C00B3EB510F24BFA3EB510340EA88
:100550005C00B3EB910F24BFA3EB910340EA9C0036
:10056000B3EBD10F24BFA3EBD10340EADC001B01A6
:1005700018BF5FEA1C1CE0D1FD2A3FF650AF8B424A
:1005800040EBC25008BF20F0010070470CF0004C57
:100590004CEA50207F32C2BFD2F1FF0340EAC25082
:1005A000704740F400004FF00003013A37E792F043
:1005B000000F00F0004C02BF400010F4000F013AA1
:1005C000F9D040EA0C0093F0000F01F0004C02BF9C
:1005D000490011F4000F013BF9D041EA0C0195E705
:1005E0000CEAD15392EA0C0F08D142027FF47DAF9E
:1005F00093EA0C0F7FF470AF084676E793EA0C0F8E
:1006000004D14B023FF44CAF08466EE730F0004C8B
:1006100018BF31F0004CCAD130F000427FF45CAF1B
:1006200031F000437FF43CAF5FE700BF42000ED2E1
:10063000B2F1FE4F0BD34FF09E03B3EB126209D41D
:100640004FEA002343F0004323FA02F070474FF0D3
:100650000000704712F1610F01D1420202D14FF048
:10066000FF3070474FF00000704700BF80B500AF0B
:1006700001220121002000F085F91E49642000F0CC
:100680009FFA00220121002000F07CF91949012085
:1006900000F096FA01220121002000F073F91549BB
:1006A000642000F08DFA00220121002000F06AF998
:1006B0001049642000F084FA01220121002000F09A
:1006C00061F94FF47A71782000F07AFA112000F085
:1006D0005DF84FF47A71962000F072FA3A2000F03B
:1006E00055F8052000F064F8292000F04FF800BF0D
:1006F00080BD00BF40420F0080B584B000AF78607D
:100700002A2000F043F8002000F052F8002000F00A
:100710004FF8002000F04CF87F2000F049F82B2023
:1007200000F034F8002000F043F8002000F040F81A
:10073000002000F03DF89F2000F03AF82C2000F057
:1007400025F80023FB8118E0FB895B007A681344DD
:100750001B881B0A9BB27B737B7B184600F028F832
:10076000FB895B007A6813441B887B737B7B18468C
:1007700000F01EF8FB890133FB81FB89B3F5A04F24
:10078000E2D300BF00BF1037BD4680BD80B582B048
:1007900000AF0346FB7100220221002000F0F2F8B6
:1007A000FB79184600F0DEF900BF0837BD4680BD72
:1007B00080B582B000AF0346FB7101220221002008
:1007C00000F0E0F8FB79184600F0CCF900BF0837DC
:1007D000BD4680BD80B483B000AF0346FB710B46BD
:1007E000BB7113467B71FB79022B7AD0022B00F38D
:1007F000B180002B02D0012B3AD0ABE0BB79072BA4
:1008000017D85A4B1B68BA7992000F2101FA02F2ED
:10081000D2431146554A0B401360544B1B687979FB
:10082000BA79920001FA02F21146504A0B43136062
:1008300092E0BB790F2B00F28F80BB79083BBB7134
:100840004B4B1B68BA7992000F2101FA02F2D24396
:100850001146474A0B401360454B1B687979BA79BA
:10086000920001FA02F21146414A0B43136073E011
:10087000BB79072B17D83F4B1B68BA7992000F2121
:1008800001FA02F2D24311463A4A0B401360394B47
:100890001B687979BA79920001FA02F21146354A59
:1008A0000B4313605AE0BB790F2B57D8BB79083B39
:1008B000BB71314B1B68BA7992000F2101FA02F229
:1008C000D24311462C4A0B4013602B4B1B6879799D
:1008D000BA79920001FA02F21146274A0B431360DB
:1008E0003CE0BB79072B17D8244B1B68BA799200E0
:1008F0000F2101FA02F2D2431146204A0B40136045
:100900001E4B1B687979BA79920001FA02F21146FE
:100910001A4A0B43136023E0BB790F2B20D8BB7915
:10092000083BBB71164B1B68BA7992000F2101FA84
:1009300002F2D2431146124A0B401360104B1B685F
:100940007979BA79920001FA02F211460C4A0B4306
:10095000136005E000BF04E000BF02E000BF00E05C
:1009600000BF00BF0C37BD4680BC70470008014087
:1009700004080140000C0140040C0140001001403B
:100980000410014080B483B000AF0346FB710B46F6
:10099000BB7113467B71FB79022B2AD0022B3ADC08
:1009A000002B02D0012B12D035E07B79012B05D131
:1009B000BB7901229A401E4B1A602EE07B79002BF6
:1009C0002BD1BB7901229A401A4B1A6025E07B7922
:1009D000012B05D1BB7901229A40174B1A601EE00A
:1009E0007B79002B1BD1BB7901229A40134B1A60F3
:1009F00015E07B79012B05D1BB7901229A40104B80
:100A00001A600EE07B79002B0BD1BB7901229A4052
:100A10000C4B1A6005E000BF04E000BF02E000BF1D
:100A200000E000BF00BF0C37BD4680BC704700BF70
:100A30001008014014080140100C0140140C014042
:100A4000101001401410014080B400AF094B1B6826
:100A5000084A43F001031360074B1B68064A23F062
:100A600003031360044B044A1B68136000BFBD46B8
:100A700080BC7047001002400410024080B483B074
:100A800000AF03460A46FB711346BB71FB79022B8C
:100A90001CD0022B25DC002B02D0012B0BD020E038
:100AA000124B1B68BA79012101FA02F211460F4A72
:100AB0000B43136015E00E4B1B68BA79012101FA54
:100AC00002F211460A4A0B4313600AE0094B1B6805
:100AD000BA79012101FA02F21146064A0B4313606A
:100AE00000BF00BF0C37BD4680BC704714100240E9
:100AF0001C1002401810024080B500AF184B1B6854
:100B0000174A43F004031360012204210020FFF779
:100B100061FE092207210020FFF75CFE0422062166
:100B20000020FFF757FE092205210020FFF752FEA3
:100B30000B4B0B4A1B681360094B094A1B68136077
:100B4000074B074A1B681360054B054A1B68136077
:100B5000034B1B68024A43F04003136000BF80BD93
:100B60000030014080B483B000AF0346FB7100BF8A
:100B7000064B9B6803F00203002BF9D0034AFB7974
:100B8000D36000BF0C37BD4680BC704700300140C9
:100B900080B400AF094B1B68084A23F001031360BF
:100BA000064B1B68054A23F004031360034B002225
:100BB0009A6000BFBD4680BC704700BF10E000E0F7
:100BC00080B584B000AF78603960194A3B68B2FBE9
:100BD000F3F31846FFF782FB0346FB607868FFF7E4
:100BE0007DFB0346F9681846FFF7D0FB034618461D
:100BF000FFF71CFD0346BB600E4ABB6823F07F4332
:100C000053600C4B1B680B4A43F00103136000BF99
:100C1000084B1B6803F48033002BF9D0054B1B688D
:100C2000044A23F00103136000BF1037BD4680BDA6
:100C300040420F0010E000E080B582B000AF0A4BE8
:100C40001B689847094B1B687B60094B1B78002B7E
:100C500005D1064B1B68054A23F00103136000BF52
:100C60000837BD4680BD00BF1C00002010E000E03A
:100C70002000002080B500AFFFF7E6FE0221022031
:100C8000FFF7FCFE0C210220FFF7F8FE02220121F3
:100C90000020FFF79FFD022202210020FFF79AFDAE
:100CA000092205210020FFF795FD092207210020D8
:100CB000FFF790FDFFF76CFFFFF71EFFFFF7D6FC75
:100CC0000248FFF719FD00BFFDE700BF840D0008D3
:100CD0000D488546AFF300800C480D490D4A0023AE
:100CE00002E0D458C4500433C4188C42F9D30A4AE1
:100CF0000A4C002301E013600432A242FBD300F04F
:100D000011F8FFF7B7FFFEE70050002000000020B9
:100D100000000020448D0008000000202400002076
:100D2000FEE7000070B500260C4D0D4C641BA410AE
:100D3000A64209D100F01AF800260A4D0A4C641B9D
:100D4000A410A64205D170BD55F8043B9847013662
:100D5000EEE755F8043B98470136F2E73C8D000872
:100D60003C8D00083C8D0008408D0008F8B500BFA0
:100D7000F8BC08BC9E467047F8B500BFF8BC08BC7C
:040D80009E467047D4
:100D84001E1C00001D130000141F0000252300007A
:100D94002B180000202D0000302E00002C23000012
:100DA400212E00002E2C00002E20000022300000F6
:100DB400333100002A2500001E2C00001F1D0000F6
:100DC40021120000162300002B290000281E000019
:100DD4001D2A00002C2A00002B210000222D0000D7
:100DE400191800000D110000060E00000F0D000080
:100DF400170400000E1900003D3B000047320000BC
:100E04003E490000494900002C3F0000222C00000C
:100E1400262600003F1C0000333C00004C4F00001D
:100E240052430000484F0000505300005549000051
:100E34004D52000053560000584E00004F5300001E
:100E4400575A000042500000353E00001E220000A8
:100E540052130000424E00003D430000332F0000B7
:100E64001D2D00002F35000025210000111F00005A
:100E74001C2200001F1000000E180000343B00006C
:100E84003C2A00002D380000151900001609000046
:100E940005140000323300003D2000002C3E000009
:100EA4003A3F00002D2600001127000029310000E0
:100EB40046140000273B00003B4600003A27000090
:100EC400182E00002837000039130000172A0000EC
:100ED400424F0000392F00001C2E00002B3400006C
:100EE4003A1A0000243400002224000026130000D3
:100EF400172700002E2C00002C20000021300000B9
:100F04002E36000033190000162B00002F35000088
:100F1400371900001C32000035370000311E000074
:100F2400182F00002B2D000039140000203700007A
:100F34002F340000381900001E310000252C000059
:100F440011120000000A0000101600002E0000001C
:100F54001A2B0000393A00004D2700003A4C0000DB
:100F6400565A0000554D00004B5200002C2F000033
:100F740028250000222700002D2C00001527000042
:100F84001016000076750000956E00008C97000026
:100F9400444400003F380000303D0000585A00002F
:100FA400614B0000525F000019190000030D00009E
:100FB400000500001C19000037130000333A00003C
:100FC4002E27000018270000181F0000130E000031
:100FD400070D0000060C00000E0C000024090000A0
:100FE40021260000312F00000D2C00000A0F000004
:100FF40012100000050D0000020700000D0B000098
:101004000E0800000B1000000D0800000B07000084
:101014000A100000120B00000B0B00000B12000062
:10102400170D0000070F00000B100000110700004F
:101034000B10000017150000110600001515000024
:1010440024200000413300003444000042420000E8
:10105400473800001D400000202A0000140800004A
:101064001D0800001D2900001F1500000A140000BF
:101074000A110000080200002504000028290000CD
:10108400211F00001F160000162100002624000066
:101094002B190000202D0000302E00002C2300000E
:1010A400212E00002D2B00002D1F0000212F0000F9
:1010B400312F00002A2300001E2C0000201E0000F7
:1010C40021130000162300002B290000281E000015
:1010D4001D2A00002C2A00002B210000222D0000D4
:1010E4001A1900000B120000040C0000080600008E
:1010F4000F000000061100003A380000482F0000DD
:101104003F4A00004A4A0000294000001F2900000D
:10111400262600003F1C0000333C00004C4F00001A
:1011240051430000474E00004F5200005448000055
:101134004C51000051540000574C00004E52000026
:10114400535800003E4D0000313A000014180000CE
:101154003B0900002B370000303600002822000035
:10116400142200002B3100003F1D00002B39000029
:10117400333900003A270000293300002C330000E3
:101184003422000025300000242800001E1800002E
:101194000C1B0000323300003E2000002B3D0000F9
:1011A4002C3400003B1500001C33000038430000C1
:1011B400412200001F3500002C3B000038170000BE
:1011C4001128000022320000290B0000041800003E
:1011D40024330000290F0000091C000027320000FE
:1011E4004A150000304100002B3000002818000090
:1011F40015270000292800003719000028380000AE
:101204002A35000035160000182D00003137000083
:101214003B1B000020360000343600002D1D00006A
:10122400142B00002C2E0000371500001E35000082
:1012340030350000331C0000192C0000282F00005A
:1012440031160000182A00003F450000532F00000B
:101254003F50000051520000563F0000455400002A
:101264003E420000373500002D3400001E210000EE
:10127400231700001D2200001C1B000000160000A4
:10128400000100007D7C0000887500007F8A00005A
:101294002525000021190000121F00006C6E0000BB
:1012A400495F00003A4700001010000018040000D5
:1012B4000F1A000015120000180C0000141B000087
:1012C400160F00000D0F00000D140000130E000097
:1012D400090D0000080E00000B0600002A0500009E
:1012E400272C00002D2B00000C280000090E000004
:1012F40014120000070F0000040900000E0C000087
:101304000C0900000B1100000E0900000C0800007D
:101314000B110000120B00000B0B00000B1200005D
:101324000F0800001207000012190000180F000037
:10133400041500000E0C000011070000101300003B
:101344001C1A00004C420000344D00003B3F0000DA
:101354003E330000203600001D2B00001A0F000051
:10136400270A0000202F00001B150000070F0000B3
:10137400030D000015120000050E00000207000016
:101384002D2B0000272200001E2900002725000025
:10139400271A00001C2900002B2900002A1E000027
:1013A4001F2C00002E2C00002F20000023310000F1
:1013B400302E00002A2200001E2C0000201E0000F7
:1013C40021130000162300002A280000271D000016
:1013D4001C2900002C2A00002B210000222D0000D3
:1013E4001A1900000A120000030B00000604000092
:1013F4000C000000030E00003B3900004E300000DA
:1014040045500000505000002C460000222C0000E3
:10141400282800003F1E0000333C00004B4E000013
:1014240050420000464D00004D500000524600005E
:101434004A4F000050530000564B00004D5100002D
:10144400585D00003C5400003137000011150000C5
:101454001F080000101B0000171B00001C0B0000DD
:101464000C180000191D0000160D000006120000E3
:10147400131A000013090000020C0000151C0000E0
:101484002D0B00001C260000191F0000140D000085
:10149400000E00001F250000290F00001323000088
:1014A4002D3B000028130000001A0000172700003D
:1014B400430000001A3300004B5D0000633300005A
:1014C400364F0000566A00007C3D00005068000062
:1014D4004F63000049370000213700002E3F000011
:1014E4002F1A00000D2300002A3500002B160000DF
:1014F400112400002D3200002A1A000012250000D9
:10150400303B00003F1C0000223700002F35000054
:10151400361900001B31000035370000321E000070
:101524001A3200003A3B0000432500002C41000021
:1015340051560000553D00003D5000005459000034
:101544006A410000546400006B710000665B000097
:10155400546300005E6000005C4F00004D5D0000BD
:101564002C3000002D230000232A0000171A00004D
:101574002D100000272C0000313000000F2B00003C
:101584000A10000096950000688E00005F6A000053
:10159400010100001C0000000D1A00008082000000
:1015A4002C7300001D2A000007070000190000002A
:1015B400101B00000E0B000016050000121900009D
:1015C400120B0000080B0000080F0000130C0000B1
:1015D4000E0C00000D1300000A0500003404000086
:1015E40031360000262400000E2100000B100000FC
:1015F40014120000090F0000060B00000F0D00007C
:101604000C0A00000B1100000F0A00000C09000076
:101614000C130000120B00000C0B00000C13000054
:101624001A1400000310000001080000120D00004D
:101634001A0C00001C200000090500001A08000014
:101644001D1E0000413C0000323B00002E3800000B
:10165400413B00001B3300000E1F00000E09000078
:1016640028000000182B00001110000004010000E5
:101674000005000014140000160800000A130000FE
:10168400302E000029250000202B00002725000013
:10169400251A00001A2700002A280000291D00002E
:1016A4001E2B00002D2B00002D1F0000212F0000F9
:1016B4002E2C0000292000001D2B0000211F0000FB
:1016C40021140000162300002A280000271D000012
:1016D4001C2900002B2900002A200000212C0000D6
:1016E400181700000B100000040C0000080600008E
:1016F4000D000000040F00003B3900004E300000D4
:1017040045500000525200003048000026300000CE
:101714002A2A000040200000343D00004A4D000009
:101724004E410000444B00004B4E00005144000069
:10173400494E00004F520000554A00004C50000032
:101744004C510000154900000C1000000D1200005F
:1017540041070000343D00003E4200003F330000DA
:101764002F3B0000404200003A3300002B360000BB
:10177400292D00001C1E00000D180000161D00007D
:10178400130C0000010A0000020A00001F00000000
:10179400091500001E2700001A0F0000000E0000AB
:1017A4000B1F00003C0000000B29000050650000E6
:1017B4008F3300005B77000092AA0000AC76000033
:1017C400779200008EA90000AE73000079940000A7
:1017D4008CA6000096730000647E00006E840000F6
:1017E4004C56000020380000283800001D1100006D
:1017F400000E0000202C00002F0A00000E24000020
:101804001D28000032090000152A0000141B0000E6
:1018140021010000081C00003A3C0000472500009C
:1018240031460000575800005F4300004A5E000044
:101834005F620000674C000051610000656B0000AE
:101844007655000062700000636600004E5400008C
:101854003C4B00004D4F0000503E00004151000041
:1018640050540000354700002B32000011140000D2
:10187400570A000051560000646300000C5E00002B
:10188400070D00009897000059900000505B00007D
:101894001A1A0000540E00004552000092940000F1
:1018A4002385000014210000141400001308000014
:1018B4000A150000120F0000300900002C3300004C
:1018C400272000000C2000000C1300001009000069
:1018D400100900000F1500000F0A00003D09000068
:1018E4003C4200001F1D0000111A00000E130000EE
:1018F400121000000A0D0000070C0000100B00007D
:101904000B0A00000A100000100B00000D0A000072
:101914000D140000120B00000E0B00000E15000049
:10192400141100000F090000091200001D1A000024
:101934000F1400000B120000121100002F0C000005
:10194400272F000031310000262500001524000057
:1019540045460000463100002D440000505200006E
:1019640063370000465F000033380000271D000085
:101974000E2200000B110000220000000C1C0000CD
:101984002B290000272000001E2900002826000023
:10199400291B00001E2B00002D2B00002B20000013
:1019A400202D00002C2A0000291E00001D2B000001
:1019B4002D2B0000291F00001D2B0000211F0000FB
:1019C40021140000162300002A280000271D00000F
:1019D4001C2900002B290000282000001F2A0000D9
:1019E400151400000B0D0000040C00000A08000090
:1019F4000A000000010C0000302E00004225000007
:101A0400394400004C4C00003242000028320000EF
:101A14002C2C000041220000353E0000494C0000FF
:101A24004C400000424900004A4D00005043000071
:101A3400484D00004F520000554A00004C50000031
:101A44002F38000011300000070900001E23000099
:101A5400531A0000484E0000454700003D3900007D
:101A64002F3B00003C3E00003A3000002C380000C0
:101A74002D2F000035210000263100002B320000FC
:101A8400332100001F29000026320000221A000022
:101A94000714000015250000380500001727000072
:101AA4005D7800009F3F0000668400009BB6000044
:101AB400B37D00007896000091B00000B27400007D
:101AC4007693000090B20000AF740000718D0000A6
:101AD4008DAC0000A67100006C88000086A1000097
:101AE400A96B0000748F00006F8700004F55000041
:101AF4001F3A00000B1F00001A000000000600003F
:101B040009140000270000000A1C00000D14000046
:101B1400250000000C2000004D5000005F3A00003A
:101B24004A5E0000686900006D5400005A6C0000B1
:101B34006C6F00006F5B00005D6C0000696F00005B
:101B4400765B000062700000666A00005A5A00006A
:101B54004B580000616300006654000059670000A0
:101B6400515500002B480000212800000A0D0000F8
:101B74006803000062670000676600000E610000F1
:101B8400090F0000BDBC000072B5000069740000BC
:101B940050500000844400007582000094960000B8
:101BA40022870000132000001A1A0000160E0000FD
:101BB4000D180000110E00002E0800002A3100004C
:101BC4002E2700000E2700000E150000110A000049
:101BD4000D0A00000D140000120D0000430C00005B
:101BE400424800001F1A00000F1900000E140000E4
:101BF400110C0000090B0000080E00000F0A000081
:101C04000A090000090F0000130C00000F0C00006B
:101C14000F160000130C0000100C00001017000039
:101C240017130000160900000D1800000E0C000028
:101C34000D030000010D0000080A0000260000004A
:101C44001220000049500000673700004A5F00007E
:101C5400A2AC0000A48700007E9B000097A20000B5
:101C6400987900006F8D0000828D00008A66000064
:101C7400647E00003D4900000F27000000030000BF
:101C8400312F00002C260000232E00002C2A0000F7
:101C94002A1F00001F2C00002C2A00002B1F00000C
:101CA400202D00002D2B00002B1F00001F2D0000F5
:101CB4002E2C0000292000001D2B0000201E0000F7
:101CC40020130000152200002A280000281D00000F
:101CD4001D2A00002A280000251F00001C270000E0
:101CE400171600000D0F0000060E00000B0900007F
:101CF40008000000000A000027250000351C000031
:101D04002C37000045450000333B00002933000018
:101D14002B2B00003F210000333C0000484B000007
:101D24004B3F000041480000494C00004F42000076
:101D3400474C00004D500000534800004A4E00003C
:101D440019220000281A00001E2000002D32000075
:101D5400472900003C4200003B3D00003B2F0000AF
:101D64002F3B0000363500003128000024320000EB
:101D74002B2D0000351E000025310000222A000012
:101D840038170000202C000021310000231200002D
:101D940001100000465B000091330000687A0000E7
:101DA40088A90000AE6500006A8D000090B10000B3
:101DB400B56D00007292000098BC0000BF7800006E
:101DC4007B9B00009ABE0000BD7A00007999000058
:101DD4008AAF0000B76D00007694000084A700006D
:101DE4009B6800005D7900007E9D0000A2610000F8
:101DF40068840000536E000035360000001A0000AD
:101E04000A1700002000000002130000192100003E
:101E140043060000293C0000636600006B5000008C
:101E2400586A00006A6B00006A5800005968000094
:101E34006C6E0000715D0000616D00006B6F00004E
:101E4400705F0000606C0000696D0000675D000059
:101E5400596500006D6F0000746100006874000033
:101E64005D61000020540000161D0000282B0000B6
:101E7400B6210000B0B5000098970000229200003F
:101E84001D230000BBBA000071B30000687300009A
:101E940059590000804D0000717E00008B8D0000B8
:101EA4001E7E00000F1C00000D0D00001801000034
:101EB4000F1A00000E0B00001D0500001920000081
:101EC400261F00000A1F00000A110000150E000062
:101ED400090E000009100000150E0000410E00005C
:101EE40040460000201B0000121A000011170000D9
:101EF400110C00000B0B00000A100000110C000074
:101F0400090B000009100000160F0000120F00005A
:101F140012190000150E0000130E0000131A000021
:101F24001210000009050000000B00001E1D000037
:101F340007100000000400003F4500008D2F000042
:101F4400728500009CA80000C48400009BB60000B9
:101F5400909F0000906F00005E8000008595000057
:101F64008961000057790000718100007D500000F4
:101F74004F6E00007C8B0000685F00003E5800003C
:101F84002D2B00002A220000212C00002B29000008
:101F9400281E00001D2A00002B2900002A1E000014
:101FA4001F2C00002E2C00002D200000212F0000EB
:101FB4002F2D00002A2100001E2C0000201E0000EE
:101FC40020130000152200002A280000291D00000B
:101FD4001E2B00002A280000221F000019240000E4
:101FE400191800000D110000060E00000C0A000074
:101FF4000A010000010C000027250000321C00002B
:102004002934000042420000343800002A34000021
:10201400272700003D1D0000313A0000474A000018
:102024004C3E0000424900004A4D00004F4300006E
:10203400474C00004B4E00004E460000454900004E
:102044001E280000281D00001E2000002328000078
:102054004B1F00003F480000424200003B36000096
:102064002E3C0000353400003D2700002E3E0000C9
:10207400393B00003F2A00002B3900002A330000BE
:10208400291B000009190000263900007115000001
:102094004458000085A00000AC7000007A90000055
:1020A40082A60000B05E0000668A000094BA0000B8
:1020B400C1700000779B0000A2CA0000D37F00001B
:1020C4008AAA0000A7D00000C48700007B9B000000
:1020D40099C20000BA7B0000739100008FB6000023
:1020E400AA7000006885000088AB0000A06A0000A8
:1020F4005F7D00007A9B0000935B00005372000038
:102104002F4000001E1D0000000F00001F2A0000C9
:10211400590D00003E510000676C00006C54000033
:10212400596B00006F7100006C6000005D6A000074
:102134006A6C00006F5D0000616D00006E7200004B
:102144006E6300005F6A0000686C0000645D00005C
:10215400566200005E600000695200005D69000084
:102164005A5E000023510000192000002E310000A7
:1021740099270000939800007978000027730000E5
:1021840022280000A09F0000659800005C67000002
:102194004F4F00007D4300006E7B000084860000EA
:1021A4001F770000101D00000D0D00001601000037
:1021B4000D180000120F00001F0900001B22000070
:1021C400332C00000B2C00000B120000160F000033
:1021D4000A0F00000A1100001D1600003516000049
:1021E400353C0000221B00001C1B00001B210000CA
:1021F400140F00000F0E00000F160000150E000053
:102204000B0E00000B120000191200001512000042
:10221400151C00001710000016100000161D000009
:10222400201E000025130000192500000E100000D8
:102234004801000032420000B3BB0000A0A000002F
:102244007C940000A4B30000998700006889000012
:10225400869A000091630000587D0000889E00006B
:10226400956100005A820000768A00008B510000BC
:10227400577800009BAE0000B17B00007E9E0000FA
:10228400161400001A0B0000111C00002523000086
:10229400291800001E2B00002F2D00002D22000005
:1022A400222F00002D2B0000291F00001D2B0000F1
:1022B400302E00002A2200001E2C00001F1D0000EA
:1022C4001F120000142100002B2900002A1E000008
:1022D4001F2C000029270000201E000017220000E8
:1022E400181700000B100000040C00000C0A00007A
:1022F4000E010000051000002D2B00003422000008
:102304002B3600004242000033380000293300001D
:10231400242400003B1A00002F380000474A000024
:102324004D3E0000434A00004B4E00004E44000066
:10233400464B0000494C00004B440000424600005C
:102344001822000024170000191C0000252A000090
:10235400521F0000445000003D3C00003E2F00008E
:102364002F3F0000414000003A2F0000293B0000AD
:102374003A3D0000382700001F31000035420000BC
:10238400332200000D210000516A0000AC3B000024
:10239400768E00007C9E0000AF610000708C00000F
:1023A40097BE0000B97000006D91000096C1000056
:1023B400CD7300007FA20000ACD70000E28A0000C9
:1023C40094B50000B8E50000DD99000091B000006C
:1023D400A2CF0000C2830000799600008AB60000F4
:1023E400B76D0000708E000083AC0000A66500008D
:1023F400607F0000779E00009D5600005779000022
:102404007489000037610000112500002D3C000094
:102414006B1A00004E600000636A00006B510000FC
:1024240057680000757700006E6600005F6C00005E
:102434006E7000006E620000626B00006E7200003D
:102444006F650000626B00006F7200006A66000036
:102454005E670000555800005E4C0000545E0000AA
:102464005C6000002E530000242B00002D3000007F
:10247400752600006F7400005958000010530000C6
:102484000B11000065640000535D00004A55000014
:10249400525200008C4600007D8A0000797B0000C7
:1024A4001C6C00000D1A0000161600000C0A000037
:1024B400030E00000E0B0000200500001C2300008A
:1024C400514A0000124A000012190000140D0000C5
:1024D4000D0D00000D140000261F00002C1F00002D
:1024E4002C3300002019000027190000272E0000BB
:1024F4001811000012110000121900001811000038
:102504000E1100000E1500001C1500001815000027
:10251400181F00001912000018120000181F0000F4
:10252400201E0000191500000E1B0000292B0000BE
:10253400BF1A0000A7BA0000959D0000AC7E000001
:10254400839E00009DAE0000977F0000618500001F
:10255400899F0000A4640000668C0000839A000038
:102564008D5A00004F7500008EA40000D96700004A
:10257400A0C500009FB30000917C00005C7D0000BA
:10258400110F0000170600000E190000211F0000A3
:102594002D140000222F00002E2C00002821000002
:1025A4001D2A0000312F0000272300001B290000F2
:1025B4002E2C00002B2000001F2D0000201E0000E8
:1025C4001D130000121F0000292700002B1C00000F
:1025D400202D00002B2900002120000018230000DA
:1025E40016150000100E0000091100000B09000070
:1025F4000A000000010C00002D2B0000382200000E
:102604002F3A000046460000323C00002832000009
:1026140028280000381E00002C3500004649000020
:102624004C3D0000424900004B4E00004A4400006B
:10263400424700004E510000484900003F4300005B
:10264400171F000025140000181E0000282C00008D
:10265400491F00003A470000403F00004530000099
:102664003446000042400000422D00002C4100008E
:102674003F44000049290000283E0000364600007F
:102684006B1F00003D55000082A00000936800000D
:102694005470000089B00000BC6A0000739300000D
:1026A40090BC0000C46B0000739800009DC900003A
:1026B400CD7800007EA10000AEDB0000EA8D0000B2
:1026C4009CBD0000B8E50000D599000089A8000071
:1026D400A8D50000C88B00007E9B000090BD0000C0
:1026E400BA7300006F8F00008BB60000AB6B000064
:1026F4006080000077A200009E5700005173000024
:10270400748D0000785E00004D6200004C5E000095
:10271400713800004F620000717A00006B600000A5
:10272400556500006A6E0000715E0000636F000072
:102734006C6F000070630000646D00006D72000037
:1027440071670000666C00006B6E00006B64000033
:1027540061680000606300005B570000515B00008B
:102764006266000060590000565D00003C3F0000B6
:10277400803500007A7F00006C6B00001666000054
:10278400111700001A190000431200003A45000016
:10279400575700008D4B00007E8B000075770000BA
:1027A40020680000111E0000101000001404000036
:1027B4000B1600000704000024000000202700007E
:1027C400595200001252000012190000160F0000A6
:1027D400000F000000060000302900002929000035
:1027E400293000001A1300002F1300002F360000B8
:1027F400160F0000190F0000192000001A13000022
:1028040012130000121900002720000014200000F9
:10281400141B00002E2700001D2700001D240000AB
:1028240024210000101B0000071200009D9F0000DF
:10283400A0900000889B00008F970000B0780000F3
:1028440089A5000091A10000A07000006A8E00001C
:10285400889E0000A86300006B920000879F000020
:10286400A161000063890000BDD30000AF960000A1
:102874007499000073870000894E000052750000AF
:1028840018160000290D0000202B00002B29000041
:10289400271E00001C29000029270000261C000018
:1028A4001B2800002D2B00002A1F00001E2C0000F6
:1028B4002E2C00002B2000001F2D0000201E0000E5
:1028C4001D130000121F0000292700002A1C00000D
:1028D4001F2C00002B2900002120000018230000D9
:1028E40017160000100F0000091100000B0900006A
:1028F40009000000000B00002E2C00003D23000006
:10290400343F000048480000313E000027310000F9
:1029140026260000381C00002C3500004548000025
:102924004C3C0000424900004B4E00004A44000069
:10293400424700004D500000474800003E4200005E
:10294400181F000025120000161E0000292D00008B
:10295400471E0000364500003E3F0000432C0000A7
:102964002E4200003E3F000040290000273E0000A8
:102974003F470000422800001A340000475B000073
:102984008E2E0000567300007C9D00009F5D0000A9
:102994005579000086B20000B9610000658C000022
:1029A4008DB90000C1680000709500009CC800004B
:1029B400CC7700007DA00000AAD80000E2890000C6
:1029C40095B30000AFDE0000D291000087A30000A1
:1029D400A1D00000CD850000829E00009AC70000AF
:1029E400C17D0000759400008CB90000B16D000039
:1029F400638400007FAC0000AA5E00005C7D0000E0
:102A040074930000815F00004F650000536C000068
:102A1400773D0000516500006F7C00006C5E000093
:102A2400546300006A700000755C00006671000069
:102A34006B6F000070620000656B00006B7000003B
:102A440070650000656B00006B7000006D65000030
:102A5400636A000066690000645F00005A61000058
:102A64004B4F0000794200006F760000595C000073
:102A74007E520000787D0000565500000D50000085
:102A8400080E00001B1A00003E1300003540000031
:102A94005B5B00008D4F00007E8B000071730000B3
:102AA400226400001320000017170000190B000017
:102AB400101B0000060300001C000000181F00008B
:102AC4004F4A00000B4900000A1000000A050000EC
:102AD4000204000001070000383300003132000016
:102AE400313800001D1600002916000029300000AE
:102AF400181100000F1100000F1600001A13000037
:102B040017130000161C0000241F00002E1E0000D6
:102B14002D3300001B16000027150000262C000092
:102B2400110E00008E08000085900000C5C400004E
:102B340099B7000083960000B1B700009799000090
:102B4400708C000092A100009E7300006C8E000047
:102B54009DB10000B37A0000789D00008AA00000B7
:102B6400DD650000A2C700008FA30000886A000092
:102B74004F740000899D000091640000597F00009B
:102B84000D0B0000260200001D2800002C2A000066
:102B9400261F00001B2800002D2B00002B20000006
:102BA400202D00002D2B00002A1F00001E2C0000E9
:102BB4002E2C00002A2000001E2C0000201E0000E5
:102BC4001D130000121F000028260000291B00000E
:102BD4001E2B00002A280000211F000018230000DB
:102BE40018170000111000000A1200000B09000061
:102BF40007000000000900002F2D000043240000FE
:102C04003A4500004C4C00003042000026300000E1
:102C140024240000371A00002B340000454800002B
:102C24004B3C0000414800004A4D00004A4300006C
:102C3400424700004C4F0000444700003B3F000067
:102C4400181D000022120000151E00002C30000088
:102C540045210000344300003C3D000041280000B1
:102C64002B4000003C3E000042250000243C0000B4
:102C740036420000481C00001D370000657D00003E
:102C8400A2490000648300007CA20000AE5800004A
:102C94005D82000086B60000BA5E00006089000014
:102CA40093C00000C66C0000749800009ECC000025
:102CB400D07A000080A20000A7D50000D9860000C9
:102CC4008CAA0000A8D70000D18C000086A20000C6
:102CD4009BCA0000CC7F0000819D00009BCA0000BD
:102CE400C17F0000749200008BB90000B46A000038
:102CF4006586000081AF0000AC5F00005A7B0000D5
:102D0400769A00008E5C0000536C00005C7A000030
:102D140080440000536A00006E7F00006D5C000078
:102D24005161000068700000795B00006872000067
:102D34006C70000071630000666C00006B70000032
:102D44006F670000666A00006B7000007167000026
:102D5400666C00006B6E00006B640000616800002C
:102D64005B5F00007C520000727900005356000043
:102D7400774C0000717600005A590000115400008D
:102D84000C1200001A1900003F1200003641000026
:102D9400565600008F4A0000808D000072740000B7
:102DA400276500001825000017170000150B000008
:102DB4000C17000007040000210000001D2400007F
:102DC40048460000104300000F1500000F0A0000E1
:102DD40008090000070D000037320000233100000D
:102DE400222800001B14000025140000252C0000DC
:102DF400140D0000110D0000111800001510000042
:102E0400160F0000151B00002A25000018240000DE
:102E1400171D00001F1A00000C190000090E000005
:102E240051500000F34B0000EAF50000DFDE000023
:102E3400B0D100009AAD000092980000997A000089
:102E44007390000095A00000927700006283000058
:102E5400758500008954000056760000A8BB000068
:102E6400B887000084A50000798C00009058000009
:102E74005A7E0000879900009C630000668A000067
:102E84001A180000200F000017220000252300005C
:102E9400281800001D2A0000312F00002E240000F5
:102EA400233000002C2A0000281E00001C2A0000E9
:102EB4002E2C00002A2000001E2C00001F1D0000E4
:102EC4001D120000121F000028260000281B00000D
:102ED4001D2A000029270000211E000018230000DD
:102EE40019180000121100000B1300000F0D000050
:102EF40007040000000900002F2D000047240000F3
:102F04003E4900004D4D00003143000027310000D0
:102F140021210000361700002A3300004548000034
:102F24004A3C000040470000494C00004942000070
:102F3400414600004B4E000041460000383C000072
:102F4400171A000020100000141D00003133000087
:102F540045250000344300003C3F000043290000A5
:102F64002A3E0000393F000044210000213A0000BD
:102F74002D3D000067140000375200007D9B0000C7
:102F84009C610000587800007FAA0000B35C000038
:102F94005B83000084B70000BE5900005A8800001B
:102FA40096C60000C9700000739900009ECE000010
:102FB400D07A000080A20000A7D50000D7860000C8
:102FC4008AA80000A8D70000D68C00008BA70000B8
:102FD400A5D40000D189000086A200009CCE000088
:102FE400C98100007A98000094C50000BF740000F5
:102FF4006C8D000083B50000AB62000056790000C0
:1030040077A30000965C0000546E00006385000006
:10301400864A0000546A00006C810000705700006A
:1030240050600000667200007A5800006772000069
:103034006D74000074650000676D00006B73000020
:103044006F680000666A00006A6F00007066000026
:10305400676B00006B6E00006C6400006269000026
:103064006A6E00006C61000062690000565900003D
:10307400754F00006F740000565500000B5000009F
:10308400060C00001D1C00005B150000525D0000D2
:103094005A5A0000964E000087940000747600008F
:1030A4002C6700001D2A000016160000120A0000FA
:1030B400091400000B08000029020000252C000060
:1030C4003F3D0000103A00000D1200000F0D0000FB
:1030D400130A000010150000433E0000203D0000CC
:1030E4001F250000241F0000251E0000242A0000C4
:1030F400130E00000B0D00000A1000001D18000044
:1031040024170000232900000B09000074060000A6
:1031140071760000B2B000002CAD0000292E000032
:10312400DDDD0000FBD50000F1FB0000F1F3000041
:103134008FE40000798C000090940000E077000098
:10314400BDD90000DAE30000D2BD0000A9C7000029
:10315400A9B70000BE8C000092AF0000BACB0000FB
:10316400959E000066840000829200009861000031
:10317400668800008999000089650000557900007F
:1031840056540000304B0000273200002523000075
:103194002A1800001F2C00002B290000281E000004
:1031A4001D2A00002B290000281D00001C2A0000F5
:1031B4002D2B0000291F00001D2B00001F1D0000E7
:1031C4001D120000121F000028260000271B00000B
:1031D4001C29000028260000211D000018230000DF
:1031E40019180000131100000C1400001311000042
:1031F40007080000000900002E2C000047230000EF
:103204003E4900004C4C00003242000028320000CD
:1032140020200000361600002A3300004548000034
:10322400493C00003F460000484B00004941000073
:10323400414600004A4D00003E450000353900007B
:10324400171700001E0F0000141B00003436000086
:1032540045280000364300003D400000442C000097
:103264002A3D000035400000442100001E350000C6
:10327400364A0000881E0000546C000083A500003C
:103284009E670000557500007EAC0000B05A000037
:10329400547C00007FB50000BF5100005887000037
:1032A40094C50000C56C00006D95000098C800002E
:1032B400CF7200007B9F0000A6D70000D9850000D4
:1032C4008CAA0000ACDB0000DC90000091AD000093
:1032D400ACDB0000D690000089A40000A0D100005F
:1032E400D18200007F9E00009BCD0000C57A0000C3
:1032F4006E90000084B90000B0620000577C0000AA
:1033040077A600009B590000516E0000638B0000FB
:10331400884900004F6800006A830000745400006C
:10332400506100006472000078570000646E000071
:103334006C75000075650000686E00006C74000018
:1033440072690000676A0000697100006F6600001E
:10335400666A0000696E00006C6500006167000029
:10336400676B0000645E00005A6100006F72000029
:10337400686800006267000044430000123E0000D9
:103384000D13000029280000672100005E69000079
:10339400656500009C5900008D9A00006F71000063
:1033A4002E6200001F2C00001B1B0000160F0000E3
:1033B4000D180000100D00002B070000272E000040
:1033C400363500000E3100000A0F00000E0C00001C
:1033D40014090000111600003937000009340000F8
:1033E400080E0000262100002220000021270000F2
:1033F4001B1600001315000012180000241F000003
:10340400161E000013180000514F0000EC4C000081
:10341400E9EE0000FFFF0000CEFB0000CACF000071
:10342400F2F50000FFE90000F4FF0000D1D4000031
:1034340095C200007F920000E6EA0000FDCD000086
:10344400DDF70000EBF20000CFCF0000AAC50000BA
:10345400C4D00000D6AA0000AEC800008C9A0000B8
:103464008B720000617B000084930000A26700005F
:103474007192000088980000A46600007094000017
:103484007B7900003A700000313C000025230000E5
:103494002A1800001F2C000029270000261C000009
:1034A4001B2800002C2A00002B1E00001F2D0000EA
:1034B4002D2B0000281F00001C2A00001E1C0000E9
:1034C4001E1100001320000027250000251A00000B
:1034D4001A27000027250000211C000018230000E3
:1034E40018170000121000000B1300001412000043
:1034F40008090000000A00002D2B000046220000ED
:103504003D4800004A4A0000354000002B350000C9
:103514001F1F0000371500002B340000464900002F
:10352400483D00003E45000046490000483F000079
:1035340040450000484B00003B4300003236000089
:10354400161700001B110000151A00003636000083
:10355400442C0000364200003C420000462E00008D
:103564002C3D000033400000442000001E320000C7
:103574004B640000963500005F7600007BA00000DD
:10358400B06000006483000078AA0000B15300001A
:10359400527C000083BC0000C55600005D8B000017
:1035A40095C60000C76C00006E96000099CB000021
:1035B400D37400007EA10000A8D90000DD870000BC
:1035C4008CAC0000ADDE0000DD8F000090AB00008D
:1035D400A7D90000D68C000087A50000A2D5000062
:1035E400D585000081A0000098CD0000C2780000BD
:1035F400688C000085BB0000BA6100005D82000099
:1036040076AB00009D5600004C6C0000638F0000F8
:10361400894600004B650000688400007952000070
:10362400516400006373000078540000626B000072
:103634006974000074630000666B00006C74000021
:1036440072690000676A0000697100006F6600001B
:10365400666A0000686D00006B640000606600002C
:10366400696D0000646000005A610000797C00000C
:103674005C720000565B000042410000293C0000DF
:10368400242A00002C2B00005B240000525D000063
:10369400626200009B5600008C990000696B000078
:1036A400305C0000212E00001B1B0000140F0000E2
:1036B4000B16000014110000300B00002C33000026
:1036C4002726000009220000050A00000D0C000056
:1036D4002C080000292E0000454300001340000080
:1036E400101500003732000025310000242A0000A4
:1036F400191400001F1300001E2400000E0C00000B
:1037040068090000656A0000FAF80000FDF5000091
:10371400F9FE0000F7F60000FFF20000FBFF0000D6
:10372400FCFF0000EBF40000D9E50000B7BD000089
:10373400C6A70000ADC10000D8DC0000E5BF000052
:10374400C5DF0000C7CD0000CDAD0000ACC6000051
:10375400E1E900009ACA0000798F0000919D000001
:10376400B87B000092A9000091A100008E770000B0
:10377400607F000090A00000E16E0000ADD1000069
:103784006B690000346000002B360000222000002A
:10379400261500001B2800002B2900002B1E00000A
:1037A400202D00002B2900002C1D0000202E0000DD
:1037B4002D2B0000281F00001C2A00001E1C0000E6
:1037C4001E1100001320000027250000251A000008
:1037D4001A27000026240000211B000018230000E3
:1037E400191800000F110000081000001311000048
:1037F40008080000000A00002E2C000046230000E8
:103804003D48000049490000363F00002C360000C6
:1038140020200000381600002C3500004649000026
:10382400473D00003D44000045480000473E00007D
:103834003F440000484B00003A430000313500008B
:10384400191800001A140000151B00003838000075
:1038540044300000354000003F4500004C33000078
:1038640032400000374700004B2700002336000099
:10387400607C00009D4B0000647A000076A000008C
:10388400B05D00006381000075A90000B450000021
:10389400547D000085C00000C85900005C8B000006
:1038A40095C80000CD6A000071990000A0D4000002
:1038B400DA79000083A80000AEE00000E08B00008D
:1038C4008FAF0000ACDD0000D98E00008AA8000094
:1038D400A8D90000DC8A00008CA90000A6DB000047
:1038E400D28700007D9D000092C80000C1700000D6
:1038F4006689000086BE0000BF6100005F8500008D
:1039040074AC0000A15300004C6C000064930000F0
:103914008B46000047640000678500007B4F000071
:103924005065000063740000785300005F6A000073
:103934006973000074600000666B00006A74000024
:10394400716800006669000068700000706500001E
:1039540065680000686D00006B640000626600002A
:10396400666A0000675D00005D6400007376000015
:103974005F6C0000595E0000484700002D420000C3
:10398400282E00001C1B0000541400004B5600009D
:1039940068680000A15C0000929F00006769000055
:1039A400305A0000212E000019190000120D0000E9
:1039B4000914000016130000350D00003138000012
:1039C400242500000E200000090D00000908000055
:1039D400430400003F44000042400000123D000048
:1039E4000F1400002D2B0000102800000F150000FC
:1039F400070200000F0100000C11000076740000A3
:103A0400EC710000E9EE0000FBFA0000F4F600009F
:103A1400F0F50000F6F70000FFF20000FAFE0000E7
:103A2400F4FD0000EDEB0000DAE50000A6AD0000B7
:103A3400C4960000AABD0000DDE10000D3C400006C
:103A4400B4CF0000C5CB0000E5AB0000C7DF000029
:103A54009BA300008F86000072870000CFDA00006D
:103A6400E6BB0000C4DA00009EAC0000AD83000099
:103A74007F9E0000C1D10000A19F00006D91000055
:103A840056540000304B0000273200002220000072
:103A940021150000162300002B2900002D1E000014
:103AA400222F0000282600002B1A00001F2D0000E2
:103AB4002D2B0000281F00001C2A00001E1C0000E3
:103AC4001E1100001320000027250000241A000006
:103AD4001926000026240000211B000018230000E2
:103AE400191800000D110000060E0000121000004D
:103AF40008070000000A00002F2D000047240000E2
:103B04003E49000049490000373F00002D370000BE
:103B140020200000381600002C350000474A000021
:103B2400473E00003D44000044470000473D00007C
:103B34003F440000474A000039420000303400008E
:103B4400191900001A170000161B0000383900006C
:103B54004433000037400000404800005135000065
:103B6400374500003D4E0000522D00002B3B000065
:103B74006B880000A55900006B81000079A3000048
:103B84009E6000004F6D000071A70000B14F00005F
:103B94004F7700007EBB0000C05200005483000039
:103BA4008CC10000CA6200006E960000A2D600001C
:103BB400E07B000087AC0000B2E40000E48F00006A
:103BC40091B20000ADE00000DA8E00008AA7000088
:103BD400A4D70000D987000089A60000A0D5000062
:103BE400C78100007190000085BD0000BA6200002A
:103BF4005D8200007FB90000B4590000547A0000CF
:103C040073AE0000A35100004B6D000066970000E6
:103C14008D46000048640000658500007D4C00006E
:103C24005064000062750000785300005F6A000071
:103C34006875000075600000666A00006A74000020
:103C44007268000066680000676F00006F6400001F
:103C540064670000686D00006B6400006266000029
:103C640065690000685C00005E6500005E6100003C
:103C740058570000525700004D4C000032470000D6
:103C84002D3300000D0C0000460500003D480000E7
:103C940081810000AE7500009FAC000066680000E2
:103CA4002F590000202D00001D1D000018110000D8
:103CB4000F1A0000181500002F0F00002B3200000F
:103CC4001A1B000016160000111500000F0E00004C
:103CD400490A0000454A0000252300000E20000088
:103CE4000B1000005A58000069550000686E00006F
:103CF400AEA90000D2A80000CFD40000FEFC000052
:103D0400FBF90000F8FD0000EFEE0000D9EA000026
:103D1400D5DA0000EFF00000F9EB0000F4F8000041
:103D2400F7FF0000D1ED0000BCC900009DA4000015
:103D3400AF8B000093A90000B5BB0000D19D00002B
:103D4400B2CD0000C9CD0000A1AE0000839B0000ED
:103D54007B810000C5650000AABD0000B7C2000059
:103D6400C8A30000A6BC0000A0AE0000D7860000D7
:103D7400A9C80000A2B2000096800000628600007C
:103D840067650000315A000026330000292700002F
:103D9400281C00001D2C0000322E000028230000E7
:103DA4001D2C00002A2600002B1B0000202F0000E1
:103DB4002B2900002C1D0000202E00001E1C0000DA
:103DC4001A1000000F1C000027250000261A00000E
:103DD4001A260000232300002119000017210000E7
:103DE400161D000014100000090F00000C0F000045
:103DF4000A050000000A00002F2D000049220000DF
:103E04003E4B000048460000353A000029370000C8
:103E14002423000035160000273300004548000025
:103E24004B3C00003F48000041440000413A000080
:103E34003B4000004C4B0000314600002E33000094
:103E4400171E00001E110000151900003B3F000062
:103E5400403800003D3F0000484900004B4400004A
:103E6400404600003C48000061300000394C00002E
:103E7400729200009F5900005474000075A5000060
:103E8400A55100004C7100006BA000009F49000088
:103E94004C6D000074A50000A9560000607A000073
:103EA40080B70000BB5700005B84000085BC0000A5
:103EB400C45E0000698C00009DD50000E47C000015
:103EC4008BA90000ABE70000E78F000091AB000076
:103ED400A1DD0000CE8700007A9500008DC60000A9
:103EE400CB7000007492000099D10000CF780000DC
:103EF4007497000092C80000C56C00006890000030
:103F040077AF0000A55200004C71000063940000DC
:103F14008E4200004765000066880000794B00006F
:103F2400485F000064760000794E0000596C000080
:103F34006C74000070590000586B00006D73000031
:103F4400735F0000616D0000686F00006E60000028
:103F540062640000647000006E640000646200002B
:103F6400606A00006F5700005D660000575B000048
:103F7400474E00003D4400004C4B00003946000011
:103F8400353C0000141100002F0D00002932000000
:103F94008C8A0000D4810000C9D600006D6C00003A
:103FA400255F0000162600002120000016110000E5
:103FB400091700001B190000330D0000283500000C
:103FC4001C1D000019180000141800000304000050
:103FD4000F000000090E00005B5B0000B3530000FB
:103FE400ABB30000E8E80000FFDE0000F6FF0000CD
:103FF400FFFF0000F6F40000E8F40000E9EB000025
:10400400E8DD0000DAE60000CED00000C7C2000000
:10401400B9C50000E7E90000FEDB0000F0FC000089
:10402400E0E60000A4D20000909E000092980000F8
:104034009982000083930000BFC60000CFAD00004A
:10404400B5C8000092980000887A000067810000DB
:10405400B9C00000C79D0000A1BE0000B2BD0000B1
:10406400C494000097B70000CCD90000B6AA0000A1
:1040740085A8000088960000A765000073970000DB
:10408400696700003F5C0000344100001A1800001A
:10409400250D000019270000282600002B1A000017
:1040A4001F2D000032300000282400001C2A0000CC
:1040B4002B2900002B1D00001F2D0000211F0000D4
:1040C4001E1300001320000028260000271B0000F8
:1040D4001B270000242400001E1A0000141E0000E8
:1040E400151A0000170F00000C1200000F12000038
:1040F40009080000000900002C2A0000481F0000E5
:104104003D4A00004B490000383E00002C3A0000B4
:104114002424000037180000293500004649000017
:104124004C3D00004049000043460000433C000071
:104134003D4200004E4D0000324800002E33000086
:104144001A21000020120000131900003C3F000057
:104154003D370000383C0000444700004D3F00005C
:104164003E4600003D4B00006A3000003F54000012
:10417400719300009B560000507000006D9F00007A
:104184009F4A000043690000689E0000A0440000AC
:104194004B6B000074A50000AB560000607C00006F
:1041A4008AC10000CA6100006C93000099D100002C
:1041B400D4740000799C00009ED60000D57D0000D8
:1041C4007C9A000094D00000CF780000799300001E
:1041D40099D50000DB7F000087A20000A5DE000067
:1041E400D58800007E9C00008EC60000B96D0000DA
:1041F4005E81000076AC0000A3500000466E000013
:104204006EA60000A0490000476C00006495000001
:10421400914300004A680000688A00007B4D00005A
:104224004A610000657A00007A5000005A6D00006F
:104234006A720000745700005E6E00007076000021
:10424400706200005E6A0000646B0000715C000034
:1042540063680000697300006D680000616100001C
:104264005B65000068520000565F0000545800006F
:10427400474B00003D4400004D4C00002E47000019
:104284002A310000100D00002C090000262F000028
:1042940092900000DF870000D3DF0000696800000F
:1042A400365B0000273700001F1E00001B0F0000B4
:1042B4000E1C000017150000250900001A27000035
:1042C400090A00001D050000171C00005F600000C3
:1042D400BE5A0000B8BD0000F6F60000F9EE00007A
:1042E400EFF90000F1F10000F5E70000E7F300004A
:1042F400E0E20000D8D40000CAD60000BFC100002C
:10430400C1B30000B3BF0000BCBE0000C9B00000D0
:10431400BBC70000D1D30000F5C50000E7F30000DF
:10432400DCE20000CECE0000BAC80000E0E60000E7
:10433400C1D00000A9BC00009EA500008A8C00002A
:1043440070830000898F0000C4730000A3BD0000C7
:10435400C3CA0000C9A70000A3C00000B8C300007E
:10436400DC9A0000B1D10000B1BE0000888F0000CB
:104374005879000099A70000B976000087A90000C9
:10438400312F00002D240000222F000026240000DD
:104394002F190000233100002624000023180000F8
:1043A400172500002C2A0000241E000018260000F7
:1043B40028260000241A0000182600001E1C0000F5
:1043C4001C100000111E00001F1D00001F12000021
:1043D400131F00001E1E0000131400000913000028
:1043E400171C0000171100000D1400000F0F00002F
:1043F40006070000000800002A280000471D0000EE
:104404003D4B00004C4A00003A3F00002E3C0000A7
:1044140026260000371A000029350000464A00000D
:104424004C3D00004049000043460000443C00006D
:104434003E4300004E4D0000304800002C31000087
:104444001A2300001F130000101800003E43000050
:104454003F380000373C0000424700004F3C00005A
:104464003D4600003E4E0000742F0000455B0000F6
:10447400799C00009E5D0000507100006C9E00005D
:104484009E47000042680000649C00009B3F0000BF
:10449400436500006A9D0000A34B000054720000B5
:1044A4007AB10000B1510000537A00007AB20000E2
:1044B400BB5500006083000091C90000D17000006A
:1044C4007B9800009BD70000DC7F000086A00000E2
:1044D400AAE60000D8900000849F00008CC500006C
:1044E400B86F0000617F000080B80000BD5F00006D
:1044F4006387000083B90000B15D0000557B0000B4
:10450400699F00009C43000043680000639400001E
:10451400924200004B690000678B00007D4D000053
:104524004B610000677C00007B520000596C000066
:10453400677000007956000062720000747A00000F
:104544006D6600005B670000606700007358000040
:10455400656A00006C7600006B6A00005F61000011
:1045640058620000624E000050590000515500008E
:10457400484800003E4500004A490000204400002D
:104584001C2300000C0900002B050000252E000050
:1045940092900000C3870000B6C400006564000068
:1045A40025570000142300002022000013110000EE
:1045B40006140000050400005300000047530000E7
:1045C400ADAE0000CEA80000C8CD0000E1E10000BF
:1045D400EAD90000E2EA0000F4F70000EEEB000084
:1045E400E2EB0000D1D30000C4C50000B6C2000055
:1045F400BDBF0000C1B00000B2BF0000C4C60000CF
:10460400D0B70000C1CE0000B4B80000D0A80000AC
:10461400C0CC0000D5D90000FAC90000EAF60000B9
:10462400E7EF0000E6DA0000D0E00000DDE3000080
:1046340096CD00007E910000888F0000A6760000D1
:104644008C9F0000ADB30000B697000098B0000046
:10465400BAC10000F8A00000D3EE0000C1CC0000F5
:10466400A6A500007D9B0000828F0000AD620000C3
:104674007D9E0000A8B70000DA870000AACB0000E6
:104684002A280000321D0000273400005250000088
:10469400494400003D4B00004A480000483C0000EB
:1046A4003C4A0000494600004238000034450000FE
:1046B4004745000040390000344200003E3C000001
:1046C4003D300000313D0000393900003C2D000030
:1046D400303C00003F3F0000303500002630000031
:1046E4001C1F0000161500000C1300000D0D000027
:1046F400050500000007000028250000411D0000FA
:104704003745000046440000393900002D390000C7
:104714002527000036190000283400004448000012
:104724004B3B00003E47000043460000443C000071
:104734003E4300004B4C00002C460000282D000096
:10474400192000001F0F000010180000434700004C
:10475400433A0000383E000044480000523B000049
:104764003E4800004051000078300000475E0000E1
:10477400709500009A5300004A6C00006A9E000085
:10478400A1430000436A000068A000009F430000AA
:10479400456900006FA40000AA4F0000587700008C
:1047A4007EB30000BF560000628A000092CA000077
:1047B400CD6D00007295000090C80000C16F00002C
:1047C4006B8800008AC60000D37000007D9700004B
:1047D40086C20000C36C00006D8700008FC8000013
:1047E400D27200007B9900009DD50000CB7C0000B4
:1047F4007195000088BE0000B66400005A80000075
:1048040074A90000A04C0000456C000064920000F4
:104814009042000049670000658900007F4B00005A
:104824004D630000697E000079560000596900005C
:10483400626E00007854000063700000757B000015
:104844006D6900005C6600005F6600007255000040
:10485400636B00006F7600006C6900005E6300000B
:104864005A640000614E00004E5900004E5500008D
:104874004B4400003F480000403F0000183800004F
:10488400111900000A07000030010000273200005F
:1048940095930000AD880000A0AE000056580000BB
:1048A4003D4700002C3B0000141600002B050000BF
:1048B4001C290000A1A00000E9930000DDE900002C
:1048C400E9EC0000DAE20000D0D70000DCDF0000F1
:1048D400E5D30000D9E20000CFD10000C2C300003C
:1048E400B4C00000C0C20000BEB30000AFBC0000F2
:1048F400C8CC0000BEBC0000ACBB0000BBBE0000C6
:10490400D7AC0000C5D40000CED20000F1C2000034
:10491400E1ED0000E6EA0000E5DA0000D5E1000080
:10492400C4CB0000B4B400009DAD0000ACB20000E4
:10493400909C0000788B0000979E0000BB850000CF
:10494400A1B40000CFD50000EAB90000CCE4000017
:10495400ECF30000E0D20000BBD60000929B000004
:104964007F7500005874000094A20000C277000014
:1049740094B30000BCCB0000C29D000094B30000BF
:10498400141300002B0600001E2C000056550000D6
:1049940051480000445200005352000056450000A4
:1049A4004757000057560000554700004656000080
:1049B4005B5A0000574D00004A5800005857000049
:1049C400594A00004D59000052520000554600005B
:1049D4004B55000058580000454E00003B45000070
:1049E4001B1E0000131400000B1300000F0E000028
:1049F40008070000000A0000211E00002E16000017
:104A04002432000037350000362A00002A36000020
:104A14002527000037190000283300004347000011
:104A24004A3A00003F45000042470000473C00006E
:104A34003F4400004A4B00002746000023280000A2
:104A4400171E00001F0D0000101B00004549000048
:104A5400443C000037400000444B0000553A00003D
:104A64003B490000435600007B320000475F0000D2
:104A74006C910000984F0000486A0000699F000094
:104A8400A2430000446B000069A30000A34400009B
:104A9400486B000073AA0000B35400005F7E00005E
:104AA40084BA0000C05E0000648A000091C7000060
:104AB400D16D0000789900009CD50000CE7E0000E6
:104AC400789500008DC90000CA730000748E000040
:104AD40093CF0000D07900007A94000098D10000B0
:104AE400D37B00007D9A000097D00000C9790000B4
:104AF4007193000091C70000C96D00006F9300001E
:104B040087BB0000AB5F0000527A00006A98000087
:104B1400914600004868000065890000824B00004F
:104B2400506600006B82000078590000576700004F
:104B3400606C000076520000626C00007279000024
:104B44006F6800005E680000606700007056000037
:104B54005F6900006D7400006C6300005B65000019
:104B64005A640000624E00004F5A00004D54000089
:104B74004D430000414A000032320000172A000071
:104B84001018000009080000360100002D3800004C
:104B9400848400008D7800007E8B00004B4D000063
:104BA400383C00002635000040430000E531000099
:104BB400D6E30000E9EB0000D9DD0000CBD700000C
:104BC400C8CB0000E1BF0000D5DE0000D7D900004B
:104BD400BFCB0000B1BD0000BCC00000CCB00000E1
:104BE400BCC80000C7CA0000C1B80000AFBE0000C6
:104BF400CFD20000E3C00000D1E00000DDE00000FF
:104C0400E7CE0000D5E40000DCE20000D3CE0000D3
:104C1400BFCD0000B9BF0000B6AB0000A2B00000D9
:104C2400B1B80000BAA10000A3B30000B9C00000ED
:104C3400B0A9000098AB0000B9C00000EBA70000C9
:104C4400D1E40000EAF00000E4D40000C8DE000073
:104C5400BBC30000AAA4000089A30000808A00004E
:104C64006C65000046600000717F0000CE560000B5
:104C7400A5C00000A8B80000908E00006481000068
:104C8400222100004314000036440000505200006A
:104C94005F430000505D000054560000584500007A
:104CA400475600005D5F00005F4E00004E5D00004F
:104CB40057590000584800004B5900005A59000049
:104CC4005A4C00004E5A0000505000004D44000061
:104CD400434D00004B4B0000344100002B360000D4
:104CE40018190000131300000B1300001312000026
:104CF4000B0B0000030E00001A1700001E0F00002B
:104D0400142200002C2A0000371F00002B3700005B
:104D14002527000036190000273200004148000012
:104D24004A3900003F45000044490000483E000065
:104D340040450000494A0000244500001F230000AC
:104D4400161A0000240B000016220000464800003A
:104D5400443A000035400000444C0000553900003E
:104D640038480000485D00007C350000465E0000C5
:104D74006D9400009B5000004B6D00006CA000007F
:104D8400A14700004469000068A20000A543000098
:104D94004A6D000078AF0000B7590000628000003F
:104DA40091C50000D26A0000789C0000A3D90000DD
:104DB400D87F000080A200009AD30000CE7C0000BF
:104DC4007895000099D50000E27F00008CA60000D1
:104DD4009EDA0000D8840000829C000098D1000074
:104DE400CE7B0000789500009ED70000DF80000095
:104DF40087A90000A4DA0000CE82000076980000A3
:104E04008DC10000B0650000577F0000709E000057
:104E1400964C00004D6D0000698C0000864D00002A
:104E2400526700006C860000775B00005664000047
:104E34005E6C000075530000616B0000717A000025
:104E4400706800005F690000626600006C57000033
:104E54005D6800006D7100006C6100005C6800001A
:104E640059620000634A00004E5B0000555B00007D
:104E74004D4900003F4B0000282800001B1E000085
:104E8400141C00000A090000370200002E3900003B
:104E9400909000007A8400006B78000034370000A2
:104EA4004D2500003B4A0000D7DA0000EAC80000A4
:104EB400DAE60000C6CA0000D7BB0000C9D500006E
:104EC400D9DD0000C9CE0000B9C50000C5C9000085
:104ED400D2B90000C2CE0000C6C90000C3B70000AA
:104EE400B1C00000CCCF0000DCBB0000C8D900007A
:104EF400E7ED0000E8D70000D2E20000CCD20000C9
:104F0400C3BC0000ADBD0000B6BC0000B5A60000E7
:104F14009FAF0000BDC30000BFAF0000ABB90000ED
:104F2400C7CE0000DBB70000C4D40000E4EB0000EF
:104F3400E9D20000D0E20000CED50000D7BC0000CA
:104F4400BDD00000C1C80000BAAE00009EB400008D
:104F5400ACB40000CA970000ABC20000BDC800009A
:104F6400C3A700009FB70000C1D000009CAA0000A6
:104F7400748E000092A200009D790000748D0000E0
:104F84006264000068550000596600005456000031
:104F94005C4700004B5A00005A5C0000614B000063
:104FA4004F5E0000606200005E5100004D5C000036
:104FB4005F610000645000005562000061630000FE
:104FC4005E540000525E0000535300004D47000041
:104FD400434D000047470000323D000029340000E3
:104FE40018170000121200000B1300001411000027
:104FF4000A0B0000020D00001A170000210F000028
:1050040017250000302E00003B2300002F3B00003A
:10501400232500003517000026310000404700001A
:105024004B3800003E440000444900004840000062
:105034004045000047480000204300001B1F0000BB
:1050440012120000270800001D2700004548000038
:10505400473C000038430000464E0000553900002C
:10506400384800004D620000773A000041590000C2
:10507400668D00009749000048690000699E0000A1
:10508400A0470000456800006DA50000B04A00007C
:105094005778000084BB0000C06500006B890000E5
:1050A40091C50000CE6C0000759A00009FD40000EA
:1050B400D87D000082A10000A3DC0000D885000098
:1050C400829F000098D40000D37C00007D970000EC
:1050D4008FCB0000D47500007E9800009FDB000099
:1050E400DB85000085A20000A5DE0000DC8800004E
:1050F40086A5000095CC0000B8760000628100000F
:1051040079AA0000A45100004D720000719F0000B4
:105114009D4F000052720000698E0000874E00000F
:10512400506700006D880000795C00005663000041
:105134005D6E000079530000646C0000727D000015
:105144006F6C000060680000606400006C55000033
:105154005C6800006F7100006B600000586A00001A
:1051640058610000644900004F5C0000636900005E
:105174004E570000404C000026260000201C000072
:10518400192100000B0900002F0000002631000047
:10519400858500006A7900005B680000272A00000A
:1051A400B11800009DAB0000EEF40000D1E0000057
:1051B400BFCB0000D0D40000E9C50000DAE5000050
:1051C400CBCF0000DFBF0000CDDC0000D0D3000057
:1051D400C5C10000B1BF0000D1D70000ECC1000080
:1051E400D6E60000E6EB0000E7D30000CFE20000C3
:1051F400C1C60000B8AE0000A0B30000B7BC0000F8
:10520400BFA40000A8B80000BAC10000CFAA0000E3
:10521400B8C80000E0E70000E1D00000CADA0000EE
:10522400E1E80000DDD10000C6D60000CDD40000C6
:10523400C3BB0000AABC0000A7AE0000B7950000E5
:105244009EB00000C7CE0000DBB40000C1D4000053
:10525400D9E10000F8C40000DBF00000E0EB00003E
:10526400B1CC00008FA50000889400009B72000060
:10527400778C000093A20000997E000074880000DF
:10528400575A000054480000425100005B5E000081
:10529400574C0000455400005C5F00005C4D00006A
:1052A4004A59000055580000604600004E5D000059
:1052B400585B00005F4900004F5B0000595B000031
:1052C400574C0000495500004C4C00004840000079
:1052D4003E48000044440000313A000028330000F6
:1052E4001B1A0000111500000C120000100D000024
:1052F40007070000010A00001F1C00002D14000015
:10530400233100003A3800003E2D0000323E0000F8
:105314002024000035150000262E00003E45000024
:105324004A3600003D43000043480000473F000068
:105334003F440000444500001C400000171B0000CF
:105344000E0B00002805000021290000474700003B
:105354004A3D00003C4800004A520000563D00000F
:10536400394900004E630000703900003A520000D1
:105374006A8F00009A4F00004E6D00006EA000007E
:10538400A34D00004B6D000072A80000B450000053
:105394005E7D000084BB0000BA66000068840000E3
:1053A4008DBF0000CE6A0000799C0000A7DC0000DD
:1053B400E18700008BAA0000ABE20000DF8D000053
:1053C40089A60000A0DC0000DA860000849E0000AC
:1053D4009FDB0000DA850000849E00009FDB000054
:1053E400DA85000084A100009AD30000BD7D00008E
:1053F400688600006AA100008B4C0000365600004D
:105404005D8F0000923800003C6200006C9A00003E
:105414009F4A00005474000068900000874E00000A
:105424004E6400006B8800007A5900005563000048
:105434005D7100007D540000676E000075800000FF
:105444006F6F00005F6600005E6200006B53000037
:105454005A690000717200006A5F0000556900001B
:105464005B620000664B0000515E00007175000035
:1054740050650000424E000029290000231F00004F
:105484001C2400000B090000290000001F29000053
:105494008B8D0000657F0000556100005D63000096
:1054A400E24F0000CEDC0000C3C90000D7B5000005
:1054B400C5D10000F0F70000C8E60000B9C4000040
:1054C400D8DE0000D9CA0000C3D30000CCD200004B
:1054D400DBBC0000C5D50000E3E80000DDD000001F
:1054E400C5D80000BCC10000B2A900009AAD0000FC
:1054F400BBC20000C5A90000ACBE0000CFD60000AE
:10550400DEBD0000C5D70000E5EC0000EDD50000CD
:10551400D6E60000D4DB0000D6C40000BFCF0000F4
:10552400BFC60000BBAF0000A4B40000B7BE0000BB
:10553400C3A70000AABC0000CBD00000E3B8000061
:10554400CADC0000ECF30000E8DA0000CFE1000060
:10555400D3DA0000D2C00000B7CA0000B8C300000C
:105564008FA6000072840000818E0000A7700000E6
:1055740085980000AEBD0000C59B0000A3B60000E6
:105584007A7D00007F6B00006B790000797F00005A
:105594007F6B00006B790000797F00007E6B000058
:1055A4006A780000767C00007B6800006775000064
:1055B400767C000078680000687400004A4E0000A1
:1055C400523E0000445000004B4B0000443F00009A
:1055D4003A44000043430000303900002732000001
:1055E4001C1B0000101600000C1300000C09000026
:1055F4000403000000070000211E00004216000002
:105604003A4500004C4A00003D3F0000313D000097
:105614001D21000034120000252D00003F4600002B
:10562400473700003A40000042470000493E00006E
:1056340042450000414200001D3D0000181C0000CE
:10564400140F0000220D0000202700004C4B000026
:1056540041440000333F00004C5400005C3F000014
:105664003D4C0000435A00007731000041590000CE
:10567400668B00009D4C0000547100006A9B000082
:10568400A24C0000506F000078AD0000A559000046
:10569400536F0000679D0000974B000047610000B6
:1056A4005E900000983D0000456600007DB2000059
:1056B400D15D00007D9C0000ABE20000DC8D0000A9
:1056C40086A300009CD80000DE82000088A20000AF
:1056D4009DD90000DC83000086A000009DD9000055
:1056E400DA83000086A1000086BF0000956B0000ED
:1056F400405E00005C9100009D3D00004968000090
:10570400699B00009C460000486C00006B990000F7
:105714009A4900004E6D0000719A00008E550000F9
:10572400526A000063840000855000005D69000037
:1057340059700000865100006D73000077840000EA
:1057440069710000596000005B6200006E51000046
:105754005D6C000074730000656200005267000015
:105764005E6500006D4E000059670000636700002D
:10577400485700003A46000036340000312B000040
:105784002A32000008070000260000001D2800003F
:105794007C7E00005C7000004C580000D3D90000EF
:1057A400E5C50000D1DF0000B6BE0000F0A900008E
:1057B400DEEA0000E7EE0000C2DD0000B1BB00003D
:1057C400DFE50000E0CF0000CADA0000DAE0000004
:1057D400EBCA0000D3E60000C3C80000B7B0000065
:1057E4009FB20000B7BE0000CAA40000B0C300000E
:1057F400DEE50000F0CB0000D7E90000E9F000008E
:10580400D7D70000BED00000C5CC0000C7B500004B
:10581400B0C00000B3BA0000C0A30000A9B90000E2
:10582400BBC20000CBAB0000B4C40000D8DF000052
:10583400F4C80000DDED0000F4FA0000EEE400001E
:10584400D8E80000D4DB0000CEC20000B5C70000D9
:10585400B4BB0000C4A20000AABB0000BCC5000089
:10586400A3AB000087970000BCC90000E1AC0000B6
:10587400C4D40000ECFC0000FFDD0000EDFC0000DF
:10588400A6AC0000AC98000098A60000A5AD0000EE
:10589400AE98000097A70000A8AF0000AF980000E2
:1058A40098A80000A7AE0000AD97000098A50000DE
:1058B400A4AA00009B960000879500005A5E000091
:1058C400514E0000434F0000494B0000453D00008D
:1058D4003B45000047470000363D00002D380000DE
:1058E4001D1C0000111700000D1400000D0A00001B
:1058F4000604000000090000211E000043160000F9
:105904003B4600004C4A00003F3F0000313D000090
:105914001D21000034120000252D00003F46000028
:1059240046370000393F000041460000473D000073
:10593400404300003F4000001B3B0000191B0000D7
:10594400160F0000290F0000282E00004A4900000D
:1059540043440000374000004A520000583D000014
:1059640039480000475E0000713500003D520000D8
:105974006388000098490000516C00006E9D00008F
:10598400A7520000587600006FA200009052000059
:10599400425D000063960000A448000056710000B8
:1059A40072A300009452000043630000598C00006D
:1059B4009C3A00004867000085BC0000D7670000DF
:1059C400819E0000A5E10000DF8B000089A3000098
:1059D4009DD90000E18300008BA50000A2DE000039
:1059E400C5880000718C000076AF0000AD5B00003C
:1059F4005A7500007EB40000BD6200006B87000091
:105A040081B40000B7620000668600007DAE00002D
:105A1400A65D00005A790000739F000090560000B4
:105A24004F6800006689000083520000566300003E
:105A34006C87000082630000676E000071830000C1
:105A4400706D00005F650000596000006B4F00003E
:105A54005A6900007674000067610000556A00000E
:105A640058600000744B0000626E00006064000027
:105A74003B550000313B000035340000302D000060
:105A84002A330000131200002F0B000026310000FF
:105A9400757500008A6900007A860000F2F800003B
:105AA400D3E40000BFCD0000BCC40000FAAF000086
:105AB400E7F20000D5DB0000C2C90000B1BB000062
:105AC400D1D70000F2C10000DAED0000F3F80000C5
